:100000000C9479000C948B000C948B000C948B0056
:100010000C948B000C948B000C948B000C948B0034
:100020000C948B000C948B000C948B000C948B0024
:100030000C948B000C948B000C941C010C948B0082
:100040000C948B000C948B000C948B000C948B0004
:100050000C948B000C948B000C948B000C948B00F4
:100060000C948B000C948B008C019701A201AD01C4
:10007000B801C301CE01D901F50100020B0216023D
:1000800021022C02370253025E02690274027F02CF
:100090008A029502A002C002C902D202DB02E40277
:1000A000ED02F602FF02190322032B0334033D0382
:1000B00046034F03690371037903810389039103A5
:1000C0009903A103C403D103DE03EB03F803050482
:1000D00012041F043D044A045704640471047E049E
:1000E0008B04A904B404BF04CA04D504E004EB04DF
:1000F000F60411241FBECFEFD8E0DEBFCDBF21E054
:10010000A0E0B1E001C01D92A830B207E1F70E9463
:100110008D000C9407050C940000CF93DF93CDB7AE
:10012000DEB72C970FB6F894DEBF0FBECDBF84E4C8
:1001300090E024E430E0F90120812068FC01208374
:1001400085E490E025E430E0F90120812360FC01A2
:10015000208387E490E02CE7FC0120838EE690E08A
:100160002EE630E0F90120812260FC0120837894A2
:1001700020E045E063E4CE0101960E94A903CE0190
:10018000059620E044E063E40E94A903CE010996AD
:1001900021E043E063E40E94A903CE01059660E0FC
:1001A0000E94B00361E0CE0101960E94B0038091ED
:1001B0000601909107018370992721E0892B09F0AE
:1001C00020E02223A1F38091040190910501892B65
:1001D00041F48091020190910301029710F481E0B3
:1001E00001C080E0882331F0CE01059661E00E94D5
:1001F000B003DDCF8091040190910501892B41F47A
:10020000CE0109960E947901882311F081E001C096
:1002100080E0882331F060E0CE0101960E94B003B7
:10022000C6CF61E0CE0101960E94B003CE010596D3
:1002300060E00E94B003BBCF1F920F920FB60F92E7
:1002400011242F938F939F9380910001909101012E
:10025000019690930101809300018091000190919B
:100260000101883E9340E9F58091020190910301DC
:100270000196909303018093020110920101109264
:1002800000018091020190910301CC9769F4809163
:10029000040190910501019690930501809304015A
:1002A00010920301109202018091040190910501C6
:1002B000CC9769F480910601909107010196909383
:1002C00007018093060110920501109204018091AC
:1002D000060190910701489721F4109207011092AE
:1002E00006019F918F912F910F900FBE0F901F903D
:1002F0001895DC018C91823409F066C01196EC915E
:1003000011974E2F50E04830510508F05DC0FA01BA
:10031000EC5CFF4F0C940105189B05C081E013961F
:100320008C93139717C113961C92139713C1199BA3
:1003300005C081E013968C9313970CC113961C9201
:10034000139708C11A9B05C081E013968C931397ED
:1003500001C113961C921397FDC01B9B05C081E041
:1003600013968C931397F6C013961C921397F2C0B2
:100370001C9B05C081E013968C931397EBC01396DA
:100380001C921397E7C01D9B05C081E013968C93C8
:100390001397E0C013961C921397DCC01E9B05C0F8
:1003A00081E013968C931397D5C013961C921397E4
:1003B000D1C01F9B05C081E013968C931397CAC0D0
:1003C00013961C921397C6C0833409F05BC0119634
:1003D000EC9111974E2F50E04730510508F052C074
:1003E000FA01E45CFF4F0C940105309B05C081E0ED
:1003F00013968C931397AEC013961C921397AAC0B2
:10040000319B05C081E013968C931397A3C013967C
:100410001C9213979FC0329B05C081E013968C936A
:10042000139798C013961C92139794C0339B05C0E2
:1004300081E013968C9313978DC013961C9213979B
:1004400089C0349B05C081E013968C93139782C0BA
:1004500013961C9213977EC0359B05C081E01396BE
:100460008C93139777C013961C92139773C0369B87
:1004700005C081E013968C9313976CC013961C9261
:10048000139768C0843409F065C01196EC911197F8
:100490004E2F50E04830510508F05CC0FA01ED5B8A
:1004A000FF4F0C940105489B05C081E013968C9387
:1004B000139750C013961C9213974CC0499B05C0CC
:1004C00081E013968C93139745C013961C92139753
:1004D00041C04A9B05C081E013968C9313973AC0A4
:1004E00013961C92139736C04B9B05C081E0139660
:1004F0008C9313972FC013961C9213972BC04C9B71
:1005000005C081E013968C93139724C013961C9218
:10051000139720C04D9B05C081E013968C931397D1
:1005200019C013961C92139715C04E9B05C081E00D
:1005300013968C9313970EC013961C9213970AC0B0
:100540004F9B05C081E013968C93139703C01396BD
:100550001C92139713968C910895DC018C91823430
:1005600009F055C01196EC9111974E2F50E048308C
:10057000510508F04CC0FA01E55BFF4F0C940105F2
:1005800012968C911297882311F0209840C0209ADF
:100590003EC012968C911297882311F0219837C093
:1005A000219A35C012968C911297882311F02298C7
:1005B0002EC0229A2CC012968C911297882311F08B
:1005C000239825C0239A23C012968C9112978823D2
:1005D00011F024981CC0249A1AC012968C9112977C
:1005E000882311F0259813C0259A11C012968C917A
:1005F0001297882311F026980AC0269A08C01296EE
:100600008C911297882311F0279801C0279A8C911A
:10061000833409F04CC01196EC9111974E2F50E0A5
:100620004730510508F043C0FA01ED5AFF4F0C94D2
:10063000010512968C911297882311F0389837C0D3
:10064000389A35C012968C911297882311F03998F8
:100650002EC0399A2CC012968C911297882311F0D3
:100660003A9825C03A9A23C012968C911297882303
:1006700011F03B981CC03B9A1AC012968C911297AD
:10068000882311F03C9813C03C9A11C012968C91AB
:100690001297882311F03D980AC03D9A08C012961F
:1006A0008C911297882311F03E9801C03E9A8C914C
:1006B000843409F04DC01196EC9111974E2F50E003
:1006C0004830510508F044C0FA01E65AFF4F0C9437
:1006D000010512968C91882311F050980895509A34
:1006E000089512968C91882311F051980895519A8B
:1006F000089512968C91882311F052980895529A79
:10070000089512968C91882311F053980895539A66
:10071000089512968C91882311F054980895549A54
:10072000089512968C91882311F055980895559A42
:10073000089512968C91882311F056980895569A30
:10074000089512968C91882311F057980895579A1E
:100750000895FC016083418322830E94AD020895C5
:10076000DC01962F8C91823409F075C01196EC91C2
:1007700011974E2F50E04830510508F06CC0FA0137
:10078000EE59FF4F0C940105992331F0289A81E02E
:1007900013968C9313975FC0289813961C92139707
:1007A0005AC0992331F0299A81E013968C931397BC
:1007B00052C0299813961C9213974DC0992331F07B
:1007C0002A9A81E013968C93139745C02A98139622
:1007D0001C92139740C0992331F02B9A81E0139615
:1007E0008C93139738C02B9813961C92139733C091
:1007F000992331F02C9A81E013968C9313972BC098
:100800002C9813961C92139726C0992331F02D9A99
:1008100081E013968C9313971EC02D9813961C920B
:10082000139719C0992331F02E9A81E013968C9377
:10083000139711C02E9813961C9213970CC09923EE
:1008400031F02F9A81E013968C93139704C02F9860
:1008500013961C9213978C91833409F068C01196FB
:10086000EC9111974E2F50E04730510508F05FC0D2
:10087000FA01E659FF4F0C940105992331F0409A93
:1008800081E013968C93139752C0409813961C9254
:1008900013974DC0992331F0419A81E013968C93C0
:1008A000139745C0419813961C92139740C0992303
:1008B00031F0429A81E013968C93139738C0429896
:1008C00013961C92139733C0992331F0439A81E019
:1008D00013968C9313972BC0439813961C921397DF
:1008E00026C0992331F0449A81E013968C93139794
:1008F0001EC0449813961C92139719C0992331F087
:10090000459A81E013968C93139711C045981396DE
:100910001C9213970CC0992331F0469A81E01396EC
:100920008C93139704C0469813961C9213978C913E
:10093000843409F065C01196EC9111974E2F50E068
:100940004830510508F05CC0FA01EF58FF4F0C9495
:100950000105992329F0589A81E013968C93089504
:10096000589813961C920895992329F0599A81E07A
:1009700013968C930895599813961C920895992371
:1009800029F05A9A81E013968C9308955A981396F9
:100990001C920895992329F05B9A81E013968C9319
:1009A00008955B9813961C920895992329F05C9AF8
:1009B00081E013968C9308955C9813961C92089589
:1009C000992329F05D9A81E013968C9308955D98A0
:1009D00013961C920895992329F05E9A81E013964C
:1009E0008C9308955E9813961C920895992329F08C
:1009F0005F9A81E013968C9308955F9813961C92EA
:100A00000895EE0FFF1F0590F491E02D0994F894DE
:020A1000FFCF16
:00000001FF
