:100000000C9462000C946C000C946C000C946C00CA
:100010000C946C000C946C000C946C000C946C00B0
:100020000C946C000C946C000C946C000C946C00A0
:100030000C946C000C946C000C946C000C946C0090
:100040000C946C000C946C000C946C000C946C0080
:100050000C946C000C946C000C946C000C946C0070
:100060000C946C000C946C0094009D00A600AF00F2
:10007000B800C100CA00D300ED00F600FF0008017F
:1000800011011A0123013D0145014D0155015D0199
:1000900065016D0175019801A501B201BF01CC0197
:1000A000D901E601F30111021E022B0238024502BA
:1000B00052025F027D02880293029E02A902B402EC
:1000C000BF02CA0211241FBECFEFD8E0DEBFCDBFF2
:1000D0000E946E000C94DB020C940000CF93DF931F
:1000E00000D000D0CDB7DEB721E046E062E4CE011B
:1000F00001960E947D0161E0CE0101960E9484017B
:10010000FFCFDC018C91823409F055C01196EC913F
:1001100011974E2F50E04830510508F04CC0FA01BD
:10012000EC5CFF4F0C94D50212968C9112978823A9
:1001300011F0209840C0209A3EC012968C911297E0
:10014000882311F0219837C0219A35C012968C91DE
:100150001297882311F022982EC0229A2CC0129652
:100160008C911297882311F0239825C0239A23C0DD
:1001700012968C911297882311F024981CC0249A0F
:100180001AC012968C911297882311F0259813C0EB
:10019000259A11C012968C911297882311F02698F7
:1001A0000AC0269A08C012968C911297882311F0E3
:1001B000279801C0279A8C91833409F04CC011967E
:1001C000EC9111974E2F50E04730510508F043C095
:1001D000FA01E45CFF4F0C94D50212968C911297B1
:1001E000882311F0389837C0389A35C012968C9110
:1001F0001297882311F039982EC0399A2CC0129684
:100200008C911297882311F03A9825C03A9A23C00E
:1002100012968C911297882311F03B981CC03B9A40
:100220001AC012968C911297882311F03C9813C033
:100230003C9A11C012968C911297882311F03D9828
:100240000AC03D9A08C012968C911297882311F02B
:100250003E9801C03E9A8C91843409F04DC01196AD
:10026000EC9111974E2F50E04830510508F044C0F2
:10027000FA01ED5BFF4F0C94D50212968C91882306
:1002800011F050980895509A089512968C918823F1
:1002900011F051980895519A089512968C918823DF
:1002A00011F052980895529A089512968C918823CD
:1002B00011F053980895539A089512968C918823BB
:1002C00011F054980895549A089512968C918823A9
:1002D00011F055980895559A089512968C91882397
:1002E00011F056980895569A089512968C91882385
:1002F00011F057980895579A0895FC01608341833F
:1003000022830E9481000895DC01962F8C91823413
:1003100009F075C01196EC9111974E2F50E04830BE
:10032000510508F06CC0FA01E55BFF4F0C94D50253
:10033000992331F0289A81E013968C9313975FC02C
:10034000289813961C9213975AC0992331F0299A32
:1003500081E013968C93139752C0299813961C92A0
:1003600013974DC0992331F02A9A81E013968C930C
:10037000139745C02A9813961C92139740C099234F
:1003800031F02B9A81E013968C93139738C02B98F9
:1003900013961C92139733C0992331F02C9A81E065
:1003A00013968C9313972BC02C9813961C9213972B
:1003B00026C0992331F02D9A81E013968C931397E0
:1003C0001EC02D9813961C92139719C0992331F0D3
:1003D0002E9A81E013968C93139711C02E98139642
:1003E0001C9213970CC0992331F02F9A81E0139639
:1003F0008C93139704C02F9813961C9213978C918B
:10040000833409F068C01196EC9111974E2F50E09B
:100410004730510508F05FC0FA01ED5AFF4F0C94C8
:10042000D502992331F0409A81E013968C9313976B
:1004300052C0409813961C9213974DC0992331F0E7
:10044000419A81E013968C93139745C04198139677
:100450001C92139740C0992331F0429A81E0139681
:100460008C93139738C0429813961C92139733C0FD
:10047000992331F0439A81E013968C9313972BC004
:10048000439813961C92139726C0992331F0449AEF
:1004900081E013968C9313971EC0449813961C9278
:1004A000139719C0992331F0459A81E013968C93E4
:1004B000139711C0459813961C9213970CC099235B
:1004C00031F0469A81E013968C93139704C04698B6
:1004D00013961C9213978C91843409F065C0119681
:1004E000EC9111974E2F50E04830510508F05CC058
:1004F000FA01E65AFF4F0C94D502992329F0589A35
:1005000081E013968C930895589813961C92089541
:10051000992329F0599A81E013968C93089559985C
:1005200013961C920895992329F05A9A81E0139604
:100530008C9308955A9813961C920895992329F044
:100540005B9A81E013968C9308955B9813961C92A6
:100550000895992329F05C9A81E013968C9308956D
:100560005C9813961C920895992329F05D9A81E076
:1005700013968C9308955D9813961C920895992371
:1005800029F05E9A81E013968C9308955E981396F5
:100590001C920895992329F05F9A81E013968C9319
:1005A00008955F9813961C920895EE0FFF1F059013
:0A05B000F491E02D0994F894FFCFB8
:00000001FF
