S01A0000426C756D656E626577616573736572756E672E737265639C
S11300000C9462000C9474000C9474000C947400AE
S11300100C9474000C9474000C9474000C9474008C
S11300200C9474000C9474000C9474000C9474007C
S11300300C9474000C9474000C94E1000C947400FF
S11300400C9474000C9474000C9474000C9474005C
S11300500C9474000C9474000C9474000C9474004C
S11300600C9474000C94740054015D0166016F01DA
S1130070780181018A019301AD01B601BF01C80174
S1130080D101DA01E301FD0105020D0215021D0291
S113009025022D0235025802650272027F028C028B
S11300A09902A602B302D102DE02EB02F8020503B2
S11300B012031F033D03480353035E0369037403E0
S11300C07F038A0311241FBECFEFD8E0DEBFCDBF6C
S11300D021E0A0E0B1E001C01D92A830B207E1F731
S11300E00E9476000C949B030C940000CF93DF9342
S11300F0CDB7DEB72C970FB6F894DEBF0FBECDBFD9
S113010084B5806884BD85B5836085BD8CE787BD73
S1130110EEE6F0E0808182608083789420E045E020
S113012063E4CE0101960E943D0220E044E063E4D2
S1130130CE0105960E943D0221E043E063E4CE0136
S113014009960E943D0260E0CE0105960E94440299
S1130150809100019091010183709927892BC1F747
S11301608091020190910301892B71F461E0CE0129
S113017005960E9444022FEF87EA91E621508040C1
S11301809040E1F700C000008091020190910301CA
S1130190892B61F4CE0109960E943E01882331F037
S11301A060E0CE0101960E944402D2CF61E0CE010C
S11301B001960E94440260E0CE0105960E9444022A
S11301C0C7CF1F920F920FB60F9211242F938F93C4
S11301D09F938091060190910701019690930701E6
S11301E0809306018091060190910701883E934017
S11301F0E9F5809104019091050101969093050120
S11302008093040110920701109206018091040169
S113021090910501CC9769F48091020190910301BA
S113022001969093030180930201109205011092AC
S113023004018091020190910301CC9769F48091AB
S113024000019091010101969093010180930001B6
S1130250109203011092020180910001909101011A
S1130260489721F410920101109200019F918F91FF
S11302702F910F900FBE0F901F901895FC01838152
S11302800895DC018C91823409F055C01196EC91EB
S113029011974E2F50E04830510508F04CC0FA0138
S11302A0EC5CFF4F0C94950312968C911297882363
S11302B011F0209840C0209A3EC012968C9112975B
S11302C0882311F0219837C0219A35C012968C9159
S11302D01297882311F022982EC0229A2CC01296CD
S11302E08C911297882311F0239825C0239A23C058
S11302F012968C911297882311F024981CC0249A8A
S11303001AC012968C911297882311F0259813C065
S1130310259A11C012968C911297882311F0269871
S11303200AC0269A08C012968C911297882311F05D
S1130330279801C0279A8C91833409F04CC01196F8
S1130340EC9111974E2F50E04730510508F043C00F
S1130350FA01E45CFF4F0C94950312968C9112976A
S1130360882311F0389837C0389A35C012968C918A
S11303701297882311F039982EC0399A2CC01296FE
S11303808C911297882311F03A9825C03A9A23C089
S113039012968C911297882311F03B981CC03B9ABB
S11303A01AC012968C911297882311F03C9813C0AE
S11303B03C9A11C012968C911297882311F03D98A3
S11303C00AC03D9A08C012968C911297882311F0A6
S11303D03E9801C03E9A8C91843409F04DC0119628
S11303E0EC9111974E2F50E04830510508F044C06D
S11303F0FA01ED5BFF4F0C94950312968C918823C0
S113040011F050980895509A089512968C9188236B
S113041011F051980895519A089512968C91882359
S113042011F052980895529A089512968C91882347
S113043011F053980895539A089512968C91882335
S113044011F054980895549A089512968C91882323
S113045011F055980895559A089512968C91882311
S113046011F056980895569A089512968C918823FF
S113047011F057980895579A0895FC0160834183B9
S113048022830E9441010895DC01962F8C918234CD
S113049009F075C01196EC9111974E2F50E0483039
S11304A0510508F06CC0FA01E55BFF4F0C9495030D
S11304B0992331F0289A81E013968C9313975FC0A7
S11304C0289813961C9213975AC0992331F0299AAD
S11304D081E013968C93139752C0299813961C921B
S11304E013974DC0992331F02A9A81E013968C9387
S11304F0139745C02A9813961C92139740C09923CA
S113050031F02B9A81E013968C93139738C02B9873
S113051013961C92139733C0992331F02C9A81E0DF
S113052013968C9313972BC02C9813961C921397A5
S113053026C0992331F02D9A81E013968C9313975A
S11305401EC02D9813961C92139719C0992331F04D
S11305502E9A81E013968C93139711C02E981396BC
S11305601C9213970CC0992331F02F9A81E01396B3
S11305708C93139704C02F9813961C9213978C9105
S1130580833409F068C01196EC9111974E2F50E016
S11305904730510508F05FC0FA01ED5AFF4F0C9443
S11305A09503992331F0409A81E013968C93139725
S11305B052C0409813961C9213974DC0992331F062
S11305C0419A81E013968C93139745C041981396F2
S11305D01C92139740C0992331F0429A81E01396FC
S11305E08C93139738C0429813961C92139733C078
S11305F0992331F0439A81E013968C9313972BC07F
S1130600439813961C92139726C0992331F0449A69
S113061081E013968C9313971EC0449813961C92F2
S1130620139719C0992331F0459A81E013968C935E
S1130630139711C0459813961C9213970CC09923D5
S113064031F0469A81E013968C93139704C0469830
S113065013961C9213978C91843409F065C01196FB
S1130660EC9111974E2F50E04830510508F05CC0D2
S1130670FA01E65AFF4F0C949503992329F0589AEE
S113068081E013968C930895589813961C920895BC
S1130690992329F0599A81E013968C9308955998D7
S11306A013961C920895992329F05A9A81E013967F
S11306B08C9308955A9813961C920895992329F0BF
S11306C05B9A81E013968C9308955B9813961C9221
S11306D00895992329F05C9A81E013968C930895E8
S11306E05C9813961C920895992329F05D9A81E0F1
S11306F013968C9308955D9813961C9208959923EC
S113070029F05E9A81E013968C9308955E9813966F
S11307101C920895992329F05F9A81E013968C9393
S113072008955F9813961C920895EE0FFF1F05908D
S10D0730F491E02D0994F894FFCF32
S9030000FC
